:100000000C942A000C9434000C9434000C943400AA
:100010000C9434000C9434000C9434000C94340090
:100020000C9434000C9434000C9434000C94340080
:100030000C9434000C9434000C9434000C94340070
:100040000C9434000C9434000C9434000C94340060
:100050000C94340011241FBECFE5D4E0DEBFCDBF29
:100060000E94B7000C94CA000C940000A998A89AAA
:10007000AA9AAB988FEF83BD8FEF90E09BBD8ABDAE
:10008000939A94980895A99AA898AA98AB9A8FEFF2
:1000900083BD8FEF90E09BBD8ABD939A949808959D
:1000A000A99AA898AA9AAB988FEF83BD8FEF90E09A
:1000B0009BBD8ABD939A94980895A998A89AAA98E6
:1000C000AB9A8FEF83BD8FEF90E09BBD8ABD939A73
:1000D00094980895A998A898AA98AB9813BC1BBCAB
:1000E0001ABC9398949A0895A09AA19AA29AA39A56
:1000F0008B9A8C9A0C946A008F9A8D9A83B7896632
:1001000083BF8FB581688FBD8EB589608EBD85B583
:10011000896685BD0895863611F40C9436008C36B8
:1001200011F40C945D00823711F40C945000823667
:1001300011F40C944300833711F40C946A00089571
:1001400010BC88E089B98AB188618AB980B58668AF
:1001500080BD08955D9BFECF8CB908955F9BFECF57
:100160008CB108958BB1881F8827881F089560E09F
:1001700072EC81E090E00E94A0000E947C000E944E
:1001800074000E94B2008823E1F30E94AE000E9436
:080190008B00F7CFF894FFCFBC
:00000001FF
